{
  "contractName": "MockTokenTransferProxy",
  "abi": [
    {
      "constant": true,
      "inputs": [
        {
          "name": "functionName",
          "type": "string"
        },
        {
          "name": "argsSignature",
          "type": "bytes32"
        }
      ],
      "name": "getMockReturnValue",
      "outputs": [
        {
          "name": "_mockReturnValue",
          "type": "bytes32"
        }
      ],
      "payable": false,
      "stateMutability": "view",
      "type": "function",
      "signature": "0x13101858"
    },
    {
      "constant": false,
      "inputs": [
        {
          "name": "functionName",
          "type": "string"
        },
        {
          "name": "argsSignature",
          "type": "bytes32"
        },
        {
          "name": "returnValue",
          "type": "bytes32"
        }
      ],
      "name": "mockReturnValue",
      "outputs": [],
      "payable": false,
      "stateMutability": "nonpayable",
      "type": "function",
      "signature": "0x80da20d4"
    },
    {
      "constant": false,
      "inputs": [],
      "name": "reset",
      "outputs": [],
      "payable": false,
      "stateMutability": "nonpayable",
      "type": "function",
      "signature": "0xd826f88f"
    },
    {
      "constant": false,
      "inputs": [
        {
          "name": "_token",
          "type": "address"
        },
        {
          "name": "_from",
          "type": "address"
        },
        {
          "name": "_to",
          "type": "address"
        },
        {
          "name": "_amount",
          "type": "uint256"
        }
      ],
      "name": "transferFrom",
      "outputs": [
        {
          "name": "_success",
          "type": "bool"
        }
      ],
      "payable": false,
      "stateMutability": "nonpayable",
      "type": "function",
      "signature": "0x15dacbea"
    },
    {
      "constant": true,
      "inputs": [
        {
          "name": "_token",
          "type": "address"
        },
        {
          "name": "_from",
          "type": "address"
        },
        {
          "name": "_to",
          "type": "address"
        },
        {
          "name": "_amount",
          "type": "uint256"
        }
      ],
      "name": "wasTransferFromCalledWith",
      "outputs": [
        {
          "name": "_wasCalled",
          "type": "bool"
        }
      ],
      "payable": false,
      "stateMutability": "view",
      "type": "function",
      "signature": "0x29f5967c"
    }
  ],
  "bytecode": "0x6060604052341561000f57600080fd5b610d9b8061001e6000396000f30060606040526004361061006d576000357c0100000000000000000000000000000000000000000000000000000000900463ffffffff168063131018581461007257806315dacbea146100f857806329f5967c1461019057806380da20d414610228578063d826f88f1461029f575b600080fd5b341561007d57600080fd5b6100da600480803590602001908201803590602001908080601f01602080910402602001604051908101604052809392919081815260200183838082843782019150505050505091908035600019169060200190919050506102b4565b60405180826000191660001916815260200191505060405180910390f35b341561010357600080fd5b610176600480803573ffffffffffffffffffffffffffffffffffffffff1690602001909190803573ffffffffffffffffffffffffffffffffffffffff1690602001909190803573ffffffffffffffffffffffffffffffffffffffff16906020019091908035906020019091905050610343565b604051808215151515815260200191505060405180910390f35b341561019b57600080fd5b61020e600480803573ffffffffffffffffffffffffffffffffffffffff1690602001909190803573ffffffffffffffffffffffffffffffffffffffff1690602001909190803573ffffffffffffffffffffffffffffffffffffffff1690602001909190803590602001909190505061046e565b604051808215151515815260200191505060405180910390f35b341561023357600080fd5b61029d600480803590602001908201803590602001908080601f016020809104026020016040519081016040528093929190818152602001838380828437820191505050505050919080356000191690602001909190803560001916906020019091905050610597565b005b34156102aa57600080fd5b6102b26106c1565b005b60006001836040518082805190602001908083835b6020831015156102ee57805182526020820191506020810190506020830392506102c9565b6001836020036101000a03801982511681845116808217855250505050505090500191505090815260200160405180910390206000836000191660001916815260200190815260200160002054905092915050565b60006104626040805190810160405280600c81526020017f7472616e7366657246726f6d000000000000000000000000000000000000000081525086868686604051808573ffffffffffffffffffffffffffffffffffffffff1673ffffffffffffffffffffffffffffffffffffffff166c010000000000000000000000000281526014018473ffffffffffffffffffffffffffffffffffffffff1673ffffffffffffffffffffffffffffffffffffffff166c010000000000000000000000000281526014018373ffffffffffffffffffffffffffffffffffffffff1673ffffffffffffffffffffffffffffffffffffffff166c0100000000000000000000000002815260140182815260200194505050505060405180910390206109b8565b60019050949350505050565b600061058d6040805190810160405280600c81526020017f7472616e7366657246726f6d000000000000000000000000000000000000000081525086868686604051808573ffffffffffffffffffffffffffffffffffffffff1673ffffffffffffffffffffffffffffffffffffffff166c010000000000000000000000000281526014018473ffffffffffffffffffffffffffffffffffffffff1673ffffffffffffffffffffffffffffffffffffffff166c010000000000000000000000000281526014018373ffffffffffffffffffffffffffffffffffffffff1673ffffffffffffffffffffffffffffffffffffffff166c010000000000000000000000000281526014018281526020019450505050506040518091039020610af1565b9050949350505050565b6000836040518082805190602001908083835b6020831015156105cf57805182526020820191506020810190506020830392506105aa565b6001836020036101000a038019825116818451168082178552505050505050905001915050908152602001604051809103902080548060010182816106149190610ca6565b916000526020600020900160008490919091509060001916905550806001846040518082805190602001908083835b6020831015156106685780518252602082019150602081019050602083039250610643565b6001836020036101000a0380198251168184511680821785525050505050509050019150509081526020016040518091039020600084600019166000191681526020019081526020016000208160001916905550505050565b60006106cb610cd2565b600080600093505b600a8410156109b2576106e4610b8d565b84600a811015156106f157fe5b60200201519250600083511415156109a557600091505b6000836040518082805190602001908083835b602083101515610740578051825260208201915060208101905060208303925061071b565b6001836020036101000a03801982511681845116808217855250505050505090500191505090815260200160405180910390208054905082101561092d576000836040518082805190602001908083835b6020831015156107b65780518252602082019150602081019050602083039250610791565b6001836020036101000a0380198251168184511680821785525050505050509050019150509081526020016040518091039020828154811015156107f657fe5b90600052602060002090015490506002836040518082805190602001908083835b60208310151561083c5780518252602082019150602081019050602083039250610817565b6001836020036101000a03801982511681845116808217855250505050505090500191505090815260200160405180910390206000826000191660001916815260200190815260200160002060006101000a81549060ff02191690556001836040518082805190602001908083835b6020831015156108d057805182526020820191506020810190506020830392506108ab565b6001836020036101000a038019825116818451168082178552505050505050905001915050908152602001604051809103902060008260001916600019168152602001908152602001600020600090558180600101925050610708565b6000836040518082805190602001908083835b6020831015156109655780518252602082019150602081019050602083039250610940565b6001836020036101000a038019825116818451168082178552505050505050905001915050908152602001604051809103902060006109a49190610ce6565b5b83806001019450506106d3565b50505050565b60016002836040518082805190602001908083835b6020831015156109f257805182526020820191506020810190506020830392506109cd565b6001836020036101000a03801982511681845116808217855250505050505090500191505090815260200160405180910390206000836000191660001916815260200190815260200160002060006101000a81548160ff0219169083151502179055506000826040518082805190602001908083835b602083101515610a8d5780518252602082019150602081019050602083039250610a68565b6001836020036101000a03801982511681845116808217855250505050505090500191505090815260200160405180910390208054806001018281610ad29190610ca6565b9160005260206000209001600083909190915090600019169055505050565b60006002836040518082805190602001908083835b602083101515610b2b5780518252602082019150602081019050602083039250610b06565b6001836020036101000a03801982511681845116808217855250505050505090500191505090815260200160405180910390206000836000191660001916815260200190815260200160002060009054906101000a900460ff16905092915050565b610b95610d07565b610140604051908101604052806040805190810160405280600c81526020017f7472616e7366657246726f6d0000000000000000000000000000000000000000815250815260200160206040519081016040528060008152508152602001602060405190810160405280600081525081526020016020604051908101604052806000815250815260200160206040519081016040528060008152508152602001602060405190810160405280600081525081526020016020604051908101604052806000815250815260200160206040519081016040528060008152508152602001602060405190810160405280600081525081526020016020604051908101604052806000815250815250905090565b815481835581811511610ccd57818360005260206000209182019101610ccc9190610d36565b5b505050565b602060405190810160405280600081525090565b5080546000825590600052602060002090810190610d049190610d36565b50565b61014060405190810160405280600a905b610d20610d5b565b815260200190600190039081610d185790505090565b610d5891905b80821115610d54576000816000905550600101610d3c565b5090565b90565b6020604051908101604052806000815250905600a165627a7a72305820054059832c5ec73c7b791c4ca6c237ce069e29e74ca44c601c45c8efe428e8e90029",
  "source": "/*\n\n  Copyright 2017 Dharma Labs Inc.\n\n  Licensed under the Apache License, Version 2.0 (the \"License\");\n  you may not use this file except in compliance with the License.\n  You may obtain a copy of the License at\n\n    http://www.apache.org/licenses/LICENSE-2.0\n\n  Unless required by applicable law or agreed to in writing, software\n  distributed under the License is distributed on an \"AS IS\" BASIS,\n  WITHOUT WARRANTIES OR CONDITIONS OF ANY KIND, either express or implied.\n  See the License for the specific language governing permissions and\n  limitations under the License.\n\n*/\n\npragma solidity 0.4.18;\n\nimport \"./MockContract.sol\";\n\n\ncontract MockTokenTransferProxy is MockContract {\n    function transferFrom(\n        address _token,\n        address _from,\n        address _to,\n        uint _amount\n    )\n        public\n        returns (bool _success)\n    {\n        functionCalledWithArgs(\"transferFrom\", keccak256(\n            _token,\n            _from,\n            _to,\n            _amount\n        ));\n\n        return true;\n    }\n\n    function wasTransferFromCalledWith(\n        address _token,\n        address _from,\n        address _to,\n        uint _amount\n    )\n        public\n        view\n        returns (bool _wasCalled)\n    {\n        return wasFunctionCalledWithArgs(\"transferFrom\", keccak256(\n            _token,\n            _from,\n            _to,\n            _amount\n        ));\n    }\n\n    function getFunctionList()\n        internal\n        returns (string[10] functionNames)\n    {\n        return [\"transferFrom\", \"\", \"\", \"\", \"\", \"\", \"\", \"\", \"\", \"\"];\n    }\n}\n",
  "sourcePath": "/Users/trqdinh/Development/loot/charta/contracts/test/mocks/MockTokenTransferProxy.sol",
  "compiler": {
    "name": "solc",
    "version": "0.4.18+commit.9cf6e910.Emscripten.clang"
  },
  "schemaVersion": "3.0.1",
  "updatedAt": "2019-02-04T01:08:20.329Z",
  "devdoc": {
    "methods": {}
  },
  "userdoc": {
    "methods": {}
  }
}