{
  "contractName": "MockDebtKernel",
  "abi": [
    {
      "constant": true,
      "inputs": [
        {
          "name": "functionName",
          "type": "string"
        },
        {
          "name": "argsSignature",
          "type": "bytes32"
        }
      ],
      "name": "getMockReturnValue",
      "outputs": [
        {
          "name": "_mockReturnValue",
          "type": "bytes32"
        }
      ],
      "payable": false,
      "stateMutability": "view",
      "type": "function"
    },
    {
      "constant": false,
      "inputs": [
        {
          "name": "functionName",
          "type": "string"
        },
        {
          "name": "argsSignature",
          "type": "bytes32"
        },
        {
          "name": "returnValue",
          "type": "bytes32"
        }
      ],
      "name": "mockReturnValue",
      "outputs": [],
      "payable": false,
      "stateMutability": "nonpayable",
      "type": "function"
    },
    {
      "constant": false,
      "inputs": [],
      "name": "reset",
      "outputs": [],
      "payable": false,
      "stateMutability": "nonpayable",
      "type": "function"
    },
    {
      "constant": false,
      "inputs": [
        {
          "name": "_agreementId",
          "type": "bytes32"
        }
      ],
      "name": "mockCreateReturnValue",
      "outputs": [],
      "payable": false,
      "stateMutability": "nonpayable",
      "type": "function"
    },
    {
      "constant": false,
      "inputs": [
        {
          "name": "creditor",
          "type": "address"
        },
        {
          "name": "orderAddresses",
          "type": "address[6]"
        },
        {
          "name": "orderValues",
          "type": "uint256[8]"
        },
        {
          "name": "orderBytes32",
          "type": "bytes32[1]"
        },
        {
          "name": "signaturesV",
          "type": "uint8[3]"
        },
        {
          "name": "signaturesR",
          "type": "bytes32[3]"
        },
        {
          "name": "signaturesS",
          "type": "bytes32[3]"
        }
      ],
      "name": "fillDebtOrder",
      "outputs": [
        {
          "name": "_agreementId",
          "type": "bytes32"
        }
      ],
      "payable": false,
      "stateMutability": "nonpayable",
      "type": "function"
    },
    {
      "constant": true,
      "inputs": [
        {
          "name": "creditor",
          "type": "address"
        },
        {
          "name": "orderAddresses",
          "type": "address[6]"
        },
        {
          "name": "orderValues",
          "type": "uint256[8]"
        },
        {
          "name": "orderBytes32",
          "type": "bytes32[1]"
        },
        {
          "name": "signaturesV",
          "type": "uint8[3]"
        },
        {
          "name": "signaturesR",
          "type": "bytes32[3]"
        },
        {
          "name": "signaturesS",
          "type": "bytes32[3]"
        }
      ],
      "name": "wasFillDebtOrderCalledWith",
      "outputs": [
        {
          "name": "wasCalled",
          "type": "bool"
        }
      ],
      "payable": false,
      "stateMutability": "view",
      "type": "function"
    }
  ],
  "bytecode": "0x6060604052341561000f57600080fd5b6111118061001e6000396000f300606060405260043610610078576000357c0100000000000000000000000000000000000000000000000000000000900463ffffffff168063131018581461007d57806380da20d414610103578063a0144d311461017a578063c2d96de9146101a1578063d826f88f146102fb578063e6488fc914610310575b600080fd5b341561008857600080fd5b6100e5600480803590602001908201803590602001908080601f016020809104026020016040519081016040528093929190818152602001838380828437820191505050505050919080356000191690602001909190505061046e565b60405180826000191660001916815260200191505060405180910390f35b341561010e57600080fd5b610178600480803590602001908201803590602001908080601f0160208091040260200160405190810160405280939291908181526020018383808284378201915050505050509190803560001916906020019091908035600019169060200190919050506104fd565b005b341561018557600080fd5b61019f600480803560001916906020019091905050610627565b005b34156101ac57600080fd5b6102e1600480803573ffffffffffffffffffffffffffffffffffffffff16906020019091908060c001906006806020026040519081016040528092919082600660200280828437820191505050505091908061010001906008806020026040519081016040528092919082600860200280828437820191505050505091908060200190600180602002604051908101604052809291908260016020028082843782019150505050509190806060019060038060200260405190810160405280929190826003602002808284378201915050505050919080606001906003806020026040519081016040528092919082600360200280828437820191505050505091908060600190600380602002604051908101604052809291908260036020028082843782019150505050509190505061066e565b604051808215151515815260200191505060405180910390f35b341561030657600080fd5b61030e610831565b005b341561031b57600080fd5b610450600480803573ffffffffffffffffffffffffffffffffffffffff16906020019091908060c0019060068060200260405190810160405280929190826006602002808284378201915050505050919080610100019060088060200260405190810160405280929190826008602002808284378201915050505050919080602001906001806020026040519081016040528092919082600160200280828437820191505050505091908060600190600380602002604051908101604052809291908260036020028082843782019150505050509190806060019060038060200260405190810160405280929190826003602002808284378201915050505050919080606001906003806020026040519081016040528092919082600360200280828437820191505050505091905050610b28565b60405180826000191660001916815260200191505060405180910390f35b60006001836040518082805190602001908083835b6020831015156104a85780518252602082019150602081019050602083039250610483565b6001836020036101000a03801982511681845116808217855250505050505090500191505090815260200160405180910390206000836000191660001916815260200190815260200160002054905092915050565b6000836040518082805190602001908083835b6020831015156105355780518252602082019150602081019050602083039250610510565b6001836020036101000a0380198251168184511680821785525050505050509050019150509081526020016040518091039020805480600101828161057a919061101c565b916000526020600020900160008490919091509060001916905550806001846040518082805190602001908083835b6020831015156105ce57805182526020820191506020810190506020830392506105a9565b6001836020036101000a0380198251168184511680821785525050505050509050019150509081526020016040518091039020600084600019166000191681526020019081526020016000208160001916905550505050565b61066b6040805190810160405280600d81526020017f66696c6c446562744f72646572000000000000000000000000000000000000008152506000600102836104fd565b50565b60008088888888888888604051808873ffffffffffffffffffffffffffffffffffffffff1673ffffffffffffffffffffffffffffffffffffffff166c0100000000000000000000000002815260140187600660200280838360005b838110156106e45780820151818401526020810190506106c9565b5050505090500186600860200280838360005b838110156107125780820151818401526020810190506106f7565b5050505090500185600160200280838360005b83811015610740578082015181840152602081019050610725565b5050505090500184600360200280838360005b8381101561076e578082015181840152602081019050610753565b5050505090500183600360200280838360005b8381101561079c578082015181840152602081019050610781565b5050505090500182600360200280838360005b838110156107ca5780820151818401526020810190506107af565b50505050905001975050505050505050604051809103902090506108236040805190810160405280600d81526020017f66696c6c446562744f726465720000000000000000000000000000000000000081525082610d2e565b915050979650505050505050565b600061083b611048565b600080600093505b600a841015610b2257610854610dca565b84600a8110151561086157fe5b6020020151925060008351141515610b1557600091505b6000836040518082805190602001908083835b6020831015156108b0578051825260208201915060208101905060208303925061088b565b6001836020036101000a038019825116818451168082178552505050505050905001915050908152602001604051809103902080549050821015610a9d576000836040518082805190602001908083835b6020831015156109265780518252602082019150602081019050602083039250610901565b6001836020036101000a03801982511681845116808217855250505050505090500191505090815260200160405180910390208281548110151561096657fe5b90600052602060002090015490506002836040518082805190602001908083835b6020831015156109ac5780518252602082019150602081019050602083039250610987565b6001836020036101000a03801982511681845116808217855250505050505090500191505090815260200160405180910390206000826000191660001916815260200190815260200160002060006101000a81549060ff02191690556001836040518082805190602001908083835b602083101515610a405780518252602082019150602081019050602083039250610a1b565b6001836020036101000a038019825116818451168082178552505050505050905001915050908152602001604051809103902060008260001916600019168152602001908152602001600020600090558180600101925050610878565b6000836040518082805190602001908083835b602083101515610ad55780518252602082019150602081019050602083039250610ab0565b6001836020036101000a03801982511681845116808217855250505050505090500191505090815260200160405180910390206000610b14919061105c565b5b8380600101945050610843565b50505050565b60008088888888888888604051808873ffffffffffffffffffffffffffffffffffffffff1673ffffffffffffffffffffffffffffffffffffffff166c0100000000000000000000000002815260140187600660200280838360005b83811015610b9e578082015181840152602081019050610b83565b5050505090500186600860200280838360005b83811015610bcc578082015181840152602081019050610bb1565b5050505090500185600160200280838360005b83811015610bfa578082015181840152602081019050610bdf565b5050505090500184600360200280838360005b83811015610c28578082015181840152602081019050610c0d565b5050505090500183600360200280838360005b83811015610c56578082015181840152602081019050610c3b565b5050505090500182600360200280838360005b83811015610c84578082015181840152602081019050610c69565b5050505090500197505050505050505060405180910390209050610cdd6040805190810160405280600d81526020017f66696c6c446562744f726465720000000000000000000000000000000000000081525082610ee3565b610d206040805190810160405280600d81526020017f66696c6c446562744f7264657200000000000000000000000000000000000000815250600060010261046e565b915050979650505050505050565b60006002836040518082805190602001908083835b602083101515610d685780518252602082019150602081019050602083039250610d43565b6001836020036101000a03801982511681845116808217855250505050505090500191505090815260200160405180910390206000836000191660001916815260200190815260200160002060009054906101000a900460ff16905092915050565b610dd261107d565b610140604051908101604052806040805190810160405280600d81526020017f66696c6c446562744f7264657200000000000000000000000000000000000000815250815260200160206040519081016040528060008152508152602001602060405190810160405280600081525081526020016020604051908101604052806000815250815260200160206040519081016040528060008152508152602001602060405190810160405280600081525081526020016020604051908101604052806000815250815260200160206040519081016040528060008152508152602001602060405190810160405280600081525081526020016020604051908101604052806000815250815250905090565b60016002836040518082805190602001908083835b602083101515610f1d5780518252602082019150602081019050602083039250610ef8565b6001836020036101000a03801982511681845116808217855250505050505090500191505090815260200160405180910390206000836000191660001916815260200190815260200160002060006101000a81548160ff0219169083151502179055506000826040518082805190602001908083835b602083101515610fb85780518252602082019150602081019050602083039250610f93565b6001836020036101000a03801982511681845116808217855250505050505090500191505090815260200160405180910390208054806001018281610ffd919061101c565b9160005260206000209001600083909190915090600019169055505050565b8154818355818115116110435781836000526020600020918201910161104291906110ac565b5b505050565b602060405190810160405280600081525090565b508054600082559060005260206000209081019061107a91906110ac565b50565b61014060405190810160405280600a905b6110966110d1565b81526020019060019003908161108e5790505090565b6110ce91905b808211156110ca5760008160009055506001016110b2565b5090565b90565b6020604051908101604052806000815250905600a165627a7a723058200f76c7826da7ce2404e8565f72cd596c45f81d4ff634432f1261e7a9dce2defc0029",
  "source": "/*\n\n  Copyright 2017 Dharma Labs Inc.\n\n  Licensed under the Apache License, Version 2.0 (the \"License\");\n  you may not use this file except in compliance with the License.\n  You may obtain a copy of the License at\n\n    http://www.apache.org/licenses/LICENSE-2.0\n\n  Unless required by applicable law or agreed to in writing, software\n  distributed under the License is distributed on an \"AS IS\" BASIS,\n  WITHOUT WARRANTIES OR CONDITIONS OF ANY KIND, either express or implied.\n  See the License for the specific language governing permissions and\n  limitations under the License.\n\n*/\n\npragma solidity 0.4.18;\n\nimport \"./MockContract.sol\";\n\n\ncontract MockDebtKernel is MockContract {\n\n    function mockCreateReturnValue(bytes32 _agreementId)\n        public\n    {\n        mockReturnValue(\"fillDebtOrder\", DEFAULT_SIGNATURE_ARGS, bytes32(_agreementId));\n    }\n\n    function fillDebtOrder(\n        address creditor,\n        address[6] orderAddresses,\n        uint[8] orderValues,\n        bytes32[1] orderBytes32,\n        uint8[3] signaturesV,\n        bytes32[3] signaturesR,\n        bytes32[3] signaturesS\n    )\n        public\n        returns (bytes32 _agreementId)\n    {\n        bytes32 argsSignature = keccak256(\n            creditor,\n            orderAddresses,\n            orderValues,\n            orderBytes32,\n            signaturesV,\n            signaturesR,\n            signaturesS\n        );\n        functionCalledWithArgs(\"fillDebtOrder\", argsSignature);\n        return getMockReturnValue(\"fillDebtOrder\", DEFAULT_SIGNATURE_ARGS);\n    }\n\n    function wasFillDebtOrderCalledWith(\n        address creditor,\n        address[6] orderAddresses,\n        uint[8] orderValues,\n        bytes32[1] orderBytes32,\n        uint8[3] signaturesV,\n        bytes32[3] signaturesR,\n        bytes32[3] signaturesS\n    )\n        public\n        view\n        returns (bool wasCalled)\n    {\n        bytes32 argsSignature = keccak256(\n            creditor,\n            orderAddresses,\n            orderValues,\n            orderBytes32,\n            signaturesV,\n            signaturesR,\n            signaturesS\n        );\n        return wasFunctionCalledWithArgs(\"fillDebtOrder\", argsSignature);\n    }\n\n    function getFunctionList()\n        internal\n        returns (string[10] functionNames)\n    {\n        return [\n            \"fillDebtOrder\",\n            \"\",\n            \"\",\n            \"\",\n            \"\",\n            \"\",\n            \"\",\n            \"\",\n            \"\",\n            \"\"\n        ];\n    }\n}\n",
  "sourcePath": "/Users/trqdinh/Development/loot/charta/contracts/test/mocks/MockDebtKernel.sol",
  "compiler": {
    "name": "solc",
    "version": "0.4.18+commit.9cf6e910.Emscripten.clang"
  },
  "schemaVersion": "3.0.1",
  "updatedAt": "2019-02-04T00:08:26.058Z",
  "devdoc": {
    "methods": {}
  },
  "userdoc": {
    "methods": {}
  }
}